:020000040800F2
:100000009876002051020008BB3C000871030008EC
:10001000B93C00081D090008D14300080000000099
:100020000000000000000000000000006302000863
:10003000510A000800000000BF020008BD3C000893
:100040006B0200086B0200086B0200086B020008DC
:100050006B0200086B0200086B0200086B020008CC
:10006000530A00086B0200086B0200086B020008CC
:10007000690900086B020008750900086B02000896
:10008000810900088D090008D9070008390900080E
:10009000210900082D0900086B0200086B02000806
:1000A0006B020008F93D00086B0200086B020008B3
:1000B0006B0200086B0200086B0200086B0200086C
:1000C0006B0200086B0200086B0200086B0200085C
:1000D0006B020008A1430008AD430008B9430008C3
:1000E0006B0200086B0200086B0200086B0200083C
:1000F0006B0200086B0200086B0200086B0200082C
:100100006B0200086B0200086B0200086B0200081B
:100110006B0200086B020008053E0008213E000843
:1001200099090008A5090008B1090008BD090008DF
:100130006B0200086B0200086B0200085D090008F2
:1001400045090008510900086B0200086B0200080D
:100150006B020008C90900086B020008C5430008CB
:100160006B0200086B0200086B0200086B020008BB
:100170006B0200086B0200086B0200080000000020
:100180006B0200086B020008E5400008F14000081F
:100190006B0200086B0200086B0200086B0200088B
:1001A00000000000000000006B02000800F002F8F0
:1001B00000F03EF80AA090E8000C82448344AAF1C3
:1001C0000107DA4501D100F033F8AFF2090EBAE8C1
:1001D0000F0013F0010F18BFFB1A43F0010318477B
:1001E000DC670000FC670000103A24BF78C878C1C3
:1001F000FAD8520724BF30C830C144BF04680C602D
:10020000704700000023002400250026103A28BF74
:1002100078C1FBD8520728BF30C148BF0B60704778
:100220001FB506F0DEF900F087FA1FBD10B510BD4E
:1002300000F094FA1146FFF7F3FF00F0C8FA00F05F
:10024000B2FA03B4FFF7F2FF03BC00F0B9FA000002
:100250000948804709480047FEE7FEE7FEE7FEE75A
:10026000FEE7FEE7FEE7FEE7FEE7FEE70448054996
:10027000054A064B70470000E93D0008AD01000843
:100280009816002098760020983600209836002096
:10029000EFF3108072B6704780F310887047424ABF
:1002A0001368012B04D04FF0010313603F4A106024
:1002B0003F4A11603F484FF0805101607047EFF3B3
:1002C000108272B63848016851B34FF000010160E6
:1002D0003648016891B1EFF309811EF0100F08BF95
:1002E00021ED108B21E9F00F4FF000041EF0100FEC
:1002F00008BF012441F8044D006801602C490968D9
:10030000096808C9B1E8F00F002B18BFB1EC108BD9
:1003100081F309884EF0100E002B18BF2EF0100E3E
:1003200082F310884EF0040E704721490860EFF305
:10033000148222F0040282F314881C494FF000005A
:10034000086019494FF0010008601B481B49D0F8AC
:10035000002041EA0201016016484FF0805101601F
:1003600017480068006880F3088861B662B6704775
:100370001EF0040F0CBFEFF30880EFF3098020E9B3
:10038000F00F40F804ED40F804ED1EF0040F0CBF30
:1003900080F3088880F3098800B505F093F95DF8CB
:1003A00004EB4EF0040E704778000020700000202F
:1003B0007400002004ED00E020ED00E00000FFFFED
:1003C00008ED00E053EA020C00F069802DE9F04BE3
:1003D0004FF00006002B1FBFB3FA83F503FA05F4B4
:1003E00024FA05F65E4012BF1643B2FA82F502FA0D
:1003F00005F4C5F120051EBF22FA05FC44EA0C04F1
:10040000203556EA044C4FEA144418BF641C4FF0E0
:1004100000084FF00009904271EB030C39D300291A
:1004200019BFB1FA81F701FA07F6B0FA80F700FABE
:1004300007F6C7F120071EBF20FA07FC46EA0C06A4
:100440002037B6FBF4FCA7EB0507103F07F01F0BA6
:10045000CBF120060CFA0BFB2CFA06F644BFB34690
:100460000026202FA4BF5E464FF0000B5BEA060C6F
:1004700008BF4FF0010B19EB0B09ABFB027C48EBFB
:100480000608C01B06FB02CC0BFB03CC71EB0C0176
:10049000C1E70B46024641464846BDE8F08B13B51E
:1004A0004FF000004FF00001AFF30080BDE81C40AA
:1004B000704740EA0103024630B59B0710D14FF068
:1004C000013400E008C208C91D1B9D4315EAC41F82
:1004D000F8D013F0FF0102F8011B0DD01B0AF8E75A
:1004E00011F8013B002B02F8013B05D011F8013B4C
:1004F000002B02F8013BF3D130BD10B5431C02E0E4
:1005000010F8011B71B18107FAD14FF0013202C816
:100510008C1A8C4314EAC211F9D0C01A0A0603D00F
:10052000C01E10BDC01A10BD0A0401D0801E10BD2F
:100530000902FCD0401E10BD40EA010370B59B07C4
:100540002ED14FF00136042A2AD308C810C99D1BAA
:100550009D43121F15EAC61517D0D8B2E1B2401A52
:1005600050EA056110D198B2A1B2401A50EA054193
:100570000AD123F07F4024F07F41401A50EA052140
:1005800002D1180EA0EB146070BDA342DBD018BAE4
:1005900021BA884201D9012070BD4FF0FF3070BDF3
:1005A0000AB9002070BD10F8013B11F8014B63B18E
:1005B000A3420AD1521E08D010F8013B11F8014B9A
:1005C0001BB1A34201D1521EEDD1181B70BD421EBA
:1005D00012F8013F002BFBD111F8013B002B02F870
:1005E000013BF9D1704710B5203AC0F00B80B1E85B
:1005F0001850203AA0E81850B1E81850A0E8185058
:10060000BFF4F5AF5FEA027C24BFB1E81850A0E860
:10061000185044BF18C918C0BDE810405FEA827C7A
:1006200024BF51F8043B40F8043B08BF7047D20791
:1006300028BF31F8023B48BF11F8012B28BF20F832
:10064000023B48BF00F8012B70474FF0000204291D
:10065000C0F0128010F0030C00F01B80CCF1040CF1
:10066000BCF1020F18BF00F8012BA8BF20F8022B25
:10067000A1EB0C0100F00DB85FEAC17C24BF00F8CB
:10068000012B00F8012B48BF00F8012B70474FF0F9
:10069000000200B5134694469646203922BFA0E8D2
:1006A0000C50A0E80C50B1F12001BFF4F7AF0907DE
:1006B00028BFA0E80C5048BF0CC05DF804EB8900CF
:1006C00028BF40F8042B08BF704748BF20F8022B12
:1006D00011F0804F18BF00F8012B704710B5044689
:1006E00010F0030F08BF11F0030F40F015804FF01A
:1006F000013E121FC0F20E8051F8043BA3EB0E0C1A
:100700002CEA030C1CEACE1C08BF40F8043BF0D0D6
:10071000A1F1040102F10402521E08DB11F8013BB1
:10072000002B00F8013BF7D11146FFF78EFF204662
:1007300010BD70477047704770B5064C7C44064D3D
:100740007D4403E0206820448047241DAC42F9D159
:1007500070BD00009C6200009C620000754600F0C5
:100760002BF8AE4605006946534620F00700854643
:1007700018B020B5FFF77AFDBDE820404FF0000625
:100780004FF000074FF000084FF0000B21F0070179
:10079000AC46ACE8C009ACE8C009ACE8C009ACE8BC
:1007A000C0098D46704710B50446AFF3008020465F
:1007B000BDE81040FFF745BD0048704734160020E3
:1007C00001491820ABBEFEE726000200704710B5B5
:1007D00005F056FE002010BD10B5044800F0FEF9EB
:1007E000BDE81040024800F0F9B900009400002074
:1007F000DC000020464910B54A6822F440324A60C5
:100800004A6843681A434A6001684A6822F4807261
:100810004A6001684A68036942EA03224A60016843
:100820004A6822F040724A6001684A6883681A4345
:100830004A6001688A6822F400628A6001688A68F6
:10084000C3681A438A60816A6FF07062D14201689E
:100850008A6822F070628A6001688A680CD0836AB4
:100860001A438A6001688A6822F040528A600168EF
:100870008A68C36A1A4301E022F040528A60016824
:100880008A6822F002028A6001688A68037E42EA6E
:1008900043028A6090F82010002901684A680FD04E
:1008A00042F400624A6001684A6822F460424A6089
:1008B00001684A68174C436A04EB43331A4301E06A
:1008C00022F400624A600168CA6A22F47002CA62B5
:1008D0000168CA6A838B104C04EB03531A43CA6243
:1008E00001688A6822F400728A6001688A6890F858
:1008F000303042EA43228A6001688A6822F48062CA
:100900008A6001688A68406942EA8020886010BD78
:100910000023014000E0FFFF0000F0FFFEE70000C1
:10092000014800F0C6BB0000E4010020014800F0CF
:10093000C0BB0000E4010020014800F0BABB000089
:10094000E4010020014800F0B4BB00000C020020CC
:10095000014800F0AEBB00000C020020014800F08E
:10096000A8BB00000C020020014800F00BBF0000F3
:10097000DC070020014800F005BF00003C08002013
:10098000014800F0FFBE00001C070020014800F0F5
:10099000F9BE00007C070020014800F0F3BE000013
:1009A00024010020014800F0EDBE00009C0800205A
:1009B000014800F0E7BE0000BC060020014800F03E
:1009C000E1BE000084010020014800F0DBBE000011
:1009D000FC08002001681823CAB2103AB2FBF3F2F7
:1009E000054B6FF30901032A9B5CC36500D9091D00
:1009F0008165084670470000EC65000810B50146A7
:100A000000208B698A6A4FF0C07453B1B3F5005F60
:100A100015D072B1012A0CD0022A0AD0032A09D1BA
:100A200004E01AB1012A06D0022A03D1C96AC90119
:100A300000D5012010BDC96AA142FAD010BD002A1C
:100A4000F7D0012AF2D0022AF3D0032AF3D010BD46
:100A50007047042000F0D2BF72B602A004F078FF05
:100A6000FBE7000043414E206572726F72210A005D
:100A70007047000078B50024009490F83C20012ACB
:100A800019D0012280F83C200A6807230568092A4A
:100A900013D9EE680A3A02EB420293409E43EE609D
:100AA0000B788A680A3B03EB43039A400368DD68CE
:100AB0002A43DA6010E0022078BD2E6902EB420280
:100AC00093409E432E610B788A6803EB43039A4060
:100AD00003681D692A431A614A681F23072A13D233
:100AE00005686E6B521E02EB820293409E436E635A
:100AF0000A8893B20A79521E02EB8202934002687E
:100B0000556B2B43536327E005680D2A12D22E6BD9
:100B1000D21F02EB820293409E432E630B790A8818
:100B2000DB1F92B203EB83039A4003681D6B2A43D9
:100B30001A6311E0EE6A0D3A02EB820293409E4383
:100B4000EE620B790A880D3B92B203EB83039A4065
:100B50000368DD6A2A43DA621B4B0568194A9D4225
:100B60000AD10D68122D07D1556825F4000555608E
:100B7000556845F48005556005689D421DD1134DAB
:100B80000B68AB4201D0112B17D1536823F48003BB
:100B90005360536843F4000353600968A9420CD1C1
:100BA0000B490C4A0968B1FBF2F101EB81014900E4
:100BB00000E0491E00910029FBD180F83C40002054
:100BC00078BD000000230140002001401200001009
:100BD0001000002040420F007047704770B5044677
:100BE00000680668456816F0020F05F020012AD05B
:100BF00049B3216CC90603D4216C41F4007121640E
:100C0000816811F0405F17D1217EA9B9C16A11F442
:100C1000700F02D0816849050ED4416821F020018F
:100C20004160206C20F480702064206CC00403D4E8
:100C3000206C40F0010020642046FFF7CDFF2168C2
:100C40006FF01200086016F0040F05F0800132D03A
:100C500089B3206CC00603D4206C40F4005020649B
:100C60002068816811F4401F1ED1816B11F4401F70
:100C700002D08168490517D44168490514D48168B8
:100C800011F0405F10D1217E71B9416821F08001DF
:100C90004160206C20F480502064206CC00503D497
:100CA000206C40F0010020642046FFF7E1FE21683F
:100CB0006FF00C00086016F0010F05F040010FD036
:100CC00071B120680068C0070AD0206C40F4803001
:100CD0002064204600F043F821686FF001000860AE
:100CE00016F0200F05F080610ED000290CD0606C4A
:100CF00040F00200606420686FF020050560204627
:100D0000FFF76BFF2068056070BD70B504004FF001
:100D1000000503D0206C002610B107E0012070BD53
:100D2000204600F01DF8666484F83C60206CC00624
:100D300010D4206C20F4885040F00200206420463B
:100D4000FFF758FD6664206C20F0020040F00100BF
:100D5000206400E0012584F83C60284670BD70479F
:100D60002DE9F04786B0064614216846FFF78FFC50
:100D70004248414B14383268002440490325071586
:100D80004FF400684FF400594FF4807A9A4240D1F2
:100D90000A6842F480720A60096801F48071059162
:100DA000016841F004010160016801F0040105914E
:100DB000016841F0020101600068694600F002002C
:100DC00005900120CDE9000502942D4800F022FE97
:100DD0000095CDE9015469462A4800F01BFE2B4DD1
:100DE000294805F10C02C5E90004AC6082E89007CF
:100DF0002C6228466C6237E0B5630022114612204F
:100E0000AE6300F08DFF122000F07CFF06B0BDE85D
:100E1000F0871F4B9A42F9D10A6842F400720A60C7
:100E2000096801F400710591016841F00101016058
:100E30000068694600F0010005900220CDE9000538
:100E40000294144800F0E6FD104D0F48603548301C
:100E500028604FF00070C5E9010405F10C02284636
:100E600082E890072C626C6200F05CFD0028C3D021
:100E7000FFF7F2FDC0E700000020014044380240C7
:100E800000080240000402401064024024010020D7
:100E9000002101400000024090F82020012A07D0E4
:100EA000022A05D0416A41F4802141620120704745
:100EB000006842690A4342610020704710B590F80B
:100EC0002020012A07D0022A05D0416A41F480215E
:100ED0004162012010BD3B48D0F8002242F00102DF
:100EE000C0F80022D0F8002222F47C52C0F8002280
:100EF000D0F800224B6A42EA0322C0F800220A7DA1
:100F000002F01F0301229A40D0F81C329343C0F82C
:100F10001C32CB69B3B9D0F80C329343C0F80C3211
:100F20008C894B6864F31F434C6900EBC404C4F81C
:100F300040320C890B6864F31F434C6900EBC40416
:100F4000C4F84432CB69012B16D1D0F80C321343CC
:100F5000C0F80C320C884B6864F31F434C6900EBFB
:100F6000C404C4F840320C89CB6864F31F434C6955
:100F700000EBC404C4F844328B69002BD0F804326F
:100F80000ED01343C0F804320B69002BD0F8143292
:100F900008D01343C0F81432096A012904D008E0CC
:100FA0009343EFE79343F5E7D0F81C121143C0F8E1
:100FB0001C12D0F8001221F00101C0F8001200202C
:100FC00010BD000000640040704730B590F820402C
:100FD000012C05D0022C03D0416A41F480215DE050
:100FE0000468002955D02469A40754D04FF4D8745C
:100FF000056804EB01142D5915F00405956005688A
:101000002D594ED0ED08556005682C5904F00204A6
:10101000D4604FF4DA74056804EB01142D5905F01F
:101020000F05156105682D59C5F3072595610568FC
:101030002C59240C54614FF4DC72046802EB011249
:10104000A4581C700468A458240A5C700468A4584E
:10105000240C9C700468A258120EDA704FF4DE72F1
:10106000046802EB0112A4581C710468A458240AF5
:101070005C710468A458240C9C710468A258120E78
:10108000DA71006881B1016941F02001016100203D
:1010900030BDE468A8E7416A41F4001141620120D3
:1010A00030BD6D0D1560AFE7C16841F02001C16032
:1010B000EDE72DE9F05F0546006800244669D0F8A9
:1010C00004908768D0F80CB0D0F810A0D0F8188041
:1010D000F10748D0F90714D001218160B80703D582
:1010E000284600F048FA0CE0780702D54FF4006477
:1010F00007E0380702D54FF4805402E0284600F09C
:1011000039FAF80516D529684FF480708860B8055B
:1011100003D5284600F031FA0CE0780502D544F4F6
:10112000005407E0380502D544F4804402E0284624
:1011300000F022FAF80316D529684FF48030886051
:10114000B80303D5284600F01AFA0CE0780302D55C
:1011500044F4004407E0380302D544F4803402E04C
:10116000284600F00BFA300707D55FEACB6004D5BC
:101170002968102044F40074C86070074FF0080715
:1011800007D55FEA0B7004D52868C760284600F0D1
:10119000B9F9B00706D52868C068800702D028468C
:1011A00000F0B2F9700607D55FEACA6004D5296875
:1011B000102044F480640861B00607D55FEA0A7025
:1011C00004D528680761284600F0A4F9F00606D582
:1011D00028680069800702D0284600F09CF9B00317
:1011E00008D55FEAC96005D52968102048602846FF
:1011F00000F092F9F00307D55FEA097004D528687A
:101200004760284600F0BCF9300446D55FEA4970D3
:1012100040D5F00504D55FEAC87001D044F0010460
:10122000B00504D55FEA887001D544F0020470056A
:1012300004D55FEA487001D544F00404300529D58F
:1012400018F0700F26D008F07000402815D006DC8A
:10125000102809D020280AD0302816D10AE05028BA
:101260000ED0602811D10EE044F008040DE044F0E7
:1012700010040AE044F0200407E044F0400404E0D5
:1012800044F0800401E044F480742868816921F00E
:1012900070018161296804204860002C05D0686ACB
:1012A000204368622846FFF78FFEBDE8F09F70B5C7
:1012B000040003D094F8200010B104E0012070BDB8
:1012C000204600F081F82068016841F001010160CA
:1012D00000F0C0FC0546052604E000F0BBFC401B06
:1012E0000A2811D820684068C007F6D02068016835
:1012F00021F00201016000F0ADFC05460BE000F0BA
:10130000A9FC401B0A2806D9606A40F400306062DC
:1013100084F82060D2E7206840688007EFD4207E00
:101320000128206801683DD021F080010160607EC5
:1013300001282068016838D021F040010160A07EBA
:1013400001282068016833D021F020010160E07E8F
:101350000128206801682ED041F010010160207F33
:1013600001282068016829D021F008010160607F10
:1013700001282068016824D021F004010160D4E92B
:1013800002010843D4E90412114308436168491E6D
:1013900008432168C86100206062012084F82000B1
:1013A000002070BD41F08001C0E741F04001C5E779
:1013B00041F02001CAE721F01001CFE741F0080118
:1013C000D4E741F00401D9E7F0B587B00446142111
:1013D0006846FFF75CF9464B4648DFF810E11968AC
:1013E000D4F800C0434A0325022609271030002400
:1013F000491CF44532D11960012907D1016841F037
:1014000000710160006800F000700590106840F005
:10141000080010601068CDE9005600F00800CDE922
:10142000047069463448CDE9024500F0F3FA002221
:101430001146132000F074FC132000F063FC00221E
:101440001146142000F06CFC142000F05BFC00221C
:101450001146152000F064FC152043E0DFF89CE005
:10146000F44541D1D0F800C04CF0806CC0F800C009
:10147000D0F800C001290CF0806CCDF814C01960C0
:1014800007D1016841F000710160006800F0007050
:101490000590106840F002001060106802AB00F088
:1014A000020005904FF44050CDE9000683E8B000FB
:1014B0006946134800F0AEFA002202213F2000F0F6
:1014C0002FFC3F2000F01EFC00220121402000F0F4
:1014D00027FC402000F016FC00221146412000F0BD
:1014E0001FFC412000F00EFC07B0F0BD006400407E
:1014F0000000002030380240000C0240006800402C
:101500000004024070470000014802F062BF000082
:1015100008160020704770477047000070B50446F9
:1015200090F82000012804D0606A40F40020606236
:1015300018E0022084F820002068016821F00101F1
:10154000016000F087FB05460EE000BF00F082FB63
:10155000401B0A2808D9606A40F400306062052008
:1015600084F82000012070BD20684068C007EDD1DC
:10157000606270BD70477047704770477047704732
:101580007047704770B54379012B1CD00126467116
:101590000223037105682B6802F0100440F6FE7206
:1015A000A2409343D1E900210A43A2401A432A6092
:1015B00001680A68C023A3409A430A6006710021AB
:1015C0004171084670BD022070BD704770B5044679
:1015D000006801684FF00405890411D5416B890446
:1015E0000ED52571216941F001012161E9024163B4
:1015F0002068016821F4805101602046FFF7E5FF73
:1016000020680168890014D5416B890011D52571C6
:10161000216941F0020121614FF0005141632068CE
:10162000016821F0805101602046BDE87040FFF75D
:10163000A8BF70BD70B5040003D02079002510B19B
:1016400005E0012070BD6571204600F007F802201A
:101650002071256101202071002070BD10B586B079
:10166000044614216846FFF712F81549206888429D
:1016700024D114480021026842F000520260006840
:1016800000F0005005900F481038026842F0010247
:101690000260006800F001000590302000900320F7
:1016A000CDE901016946084800F0B4F900220321A0
:1016B000362000F035FB362000F024FB06B010BDCC
:1016C0000074004040380240000002402DE9F04123
:1016D0000446876D00F0BEFA064694F835000025F2
:1016E000022806D08020606584F834500120BDE8CF
:1016F000F0812068016821F01601016020684169CD
:1017000021F080014161206C08B9A06C20B12068F3
:10171000016821F0080101602068016821F00101E1
:1017200001600CE000F096FA801B052807D9202004
:101730006065032084F8350084F83450D7E72068CA
:101740000068C007EED194F85C103F208840B86074
:10175000012084F8350084F834500020C7E790F861
:101760003510022903D080214165012070470521F1
:1017700080F835100068016821F001010160002047
:10178000704700002DE9F84304464FF00009CDF8FA
:10179000009063484FF41651A56D0068B0FBF1F757
:1017A0002E6894F85C10082000FA01F131420FD045
:1017B00021680A6852070BD50A6822F004020A6001
:1017C00094F85C108840A860606D40F0010060658E
:1017D00094F85C104FF0010808FA01F0304208D08C
:1017E00021684969090604D5A860606D40F00200CF
:1017F000606594F85C1004208840304208D021686D
:101800000968890704D5A860606D40F00400606530
:1018100094F85C1010208840304218D02168096884
:10182000090714D5A86020680168490304D5006839
:10183000000308D5A16C07E00168C90503D401685D
:1018400021F008010160216C09B12046884794F815
:101850005C1020208840304231D021680968C906D8
:101860002DD5A86094F8350005282068016806D0B9
:10187000490347D5006800031DD4616C1CE021F0CA
:10188000160101602068416921F080014161206CEE
:1018900008B9A06C20B12068016821F0080101603E
:1018A00094F85C103F208840A86084F8358084F864
:1018B0003490216D1FE0E16B09B120468847606DCF
:1018C00000282BD0606DC00714D0052084F83500A7
:1018D0002068016821F0010101600098401C00901F
:1018E000B84203D820680068C007F6D184F8358074
:1018F00084F83490E16C002910D001B02046BDE896
:10190000F04308470168C905D5D4016821F01001EA
:10191000016084F8358084F83490CCE7BDE8F88322
:10192000100000202DE9F041044600F093F906462E
:101930005CB1022084F83500002584F8345020681A
:10194000016821F0010101600DE00120BDE8F08196
:1019500000F080F9801B052805D920206065032050
:1019600084F83500F2E720680068C007F0D12268EB
:10197000116820480140D4E901031843D4E9033633
:101980003343184363691843A3691843E369184351
:10199000236A18430843616A042903D1D4E90B136D
:1019A00019430843106020684069666A20F0070107
:1019B00030460E43012704280CD1A06A0643E06A92
:1019C00040B12046FFF71AF820B14020606584F846
:1019D0003570BAE7206846612046FEF7FBFF94F8B1
:1019E0005C203F2191408160656584F8357000205E
:1019F000ACE700003F8010F070470000044910B5CC
:101A00000A68024202D00860FFF7F6FF10BD00002E
:101A1000143C01402DE9F84FDFF8F8A10022012421
:101A200003254FF00F090AF1040BAAF1040E00BFC1
:101A30000B6804FA02F63340B34270D10F7907F015
:101A40000307012F01D0022F16D187684FEA420801
:101A500005FA08FC27EA0C07D1F80CC00CFA08FCC0
:101A60004CEA070CC0F808C04768B7430E79C6F3C4
:101A7000001696403E4346600E79F643B6070AD0FC
:101A8000C7684FEA420C05FA0CF6B7438E6806FAAF
:101A90000CF63E43C6600E7906F00306022E10D106
:101AA000D60800EB8608D8F8206057074FEAD76CB5
:101AB00009FA0CF7BE430F6907FA0CF73743C8F869
:101AC000207006684FEA420C05FA0CF7BE430F7906
:101AD00007F0030707FA0CF7374307604E6816F460
:101AE000403F1CD04C4E376847F48047376036681B
:101AF00022F0030706F480460096484E07EB060CDA
:101B0000DCF8086897073F0F09FA07F826EA080685
:101B1000DFF80C81404503D14FF0000841E072E04E
:101B2000DFF80081404502D14FF0010839E0DFF8CD
:101B3000F880404502D14FF0020832E0DFF8EC8037
:101B4000404502D14FF003082BE0DFF8E480404528
:101B500002D14FF0040824E0DFF8D880404502D1DC
:101B60004FF005081DE0DFF8D080404502D14FF06E
:101B7000060816E0DFF8C480404502D14FF00708A0
:101B80000FE0DFF8BC80404502D14FF0080808E0C4
:101B9000DFF8B080404502D14FF0090801E04FF076
:101BA0000A0808FA07F848EA0608CCF80888DAF8BC
:101BB00000605746D1F804C09E435FEACC2C00D5A4
:101BC0001E433E60DBF800605F46D1F804C09E43D0
:101BD0005FEA8C2C00D51E433E60DEF8006077463D
:101BE000D1F804C09E435FEA8C3C00D51E433E60A2
:101BF000084F083F3E68D1F804C09E435FEACC3CE2
:101C000000D51E433E60521C102AFFF411AFBDE800
:101C1000F88F0000083C0140443802400030014089
:101C2000000002400004024000080240000C024094
:101C3000001002400014024000180240001C024044
:101C400000200240002402400AB18161704709046B
:101C5000FBE7000001488068704700000400002096
:101C60000B4810B5016841F400710160016841F44E
:101C700080610160016841F480710160032000F01F
:101C80006FF8002000F006F800F024F8002010BDE6
:101C9000003C024070B50D4D04464FF47A7128782F
:101CA000B1FBF0F00A490968B1FBF0F000F0A6FBC7
:101CB00048B9102C07D200222146501E00F030F8FF
:101CC00000206C6070BD012070BD00000400002089
:101CD000100000200A4808B5016841F48041016005
:101CE000006800F4804000900548001F016841F042
:101CF00080510160006800F08050009008BD000035
:101D000044380240002809DB00F01F020121914005
:101D10004009800000F1E020C0F800117047000089
:101D2000F0B40E4B1B680C46C3F30223C3F1070546
:101D3000042D00D90425191D072901D2002300E034
:101D4000DB1E012606FA05F1491E214099409E40FE
:101D5000761E16403143F0BC02F06EBB0CED00E085
:101D6000064900F0070208684FF6FF03184040EAF2
:101D70000220034A10430860704700000CED00E0A9
:101D80000000FA052DE9F0470E46050065D0DFF8A2
:101D90001481D8F80000F7B200F00F00B04207D26B
:101DA00088F80070D8F8000000F00F00B04254D15D
:101DB00028683D4C810712D5400703D5206840F4C0
:101DC000E05020602878000703D5206840F4604088
:101DD00020602068A96820F0F0000843206028787F
:101DE000C0072DD0304968680839012812D0022870
:101DF00013D0032811D00968890700292DDA21683A
:101E000021F0030101432160FFF724FF814641F2E5
:101E1000883A0EE009688903EFE709688901ECE771
:101E2000FFF718FFA0EB0901514502D90320BDE8D7
:101E3000F0872068696800F00C00B0EB810FEFD1EB
:101E4000D8F80010404601F00F01B14207D90770E1
:101E5000006800F00F00B04201D00120E7E72878C9
:101E6000400705D52068E96820F4E0500843206069
:101E70002878000706D52068296920F4604040EAE8
:101E8000C100206000F03EF82168084AC1F3031148
:101E9000515CC8400649086006480068FFF7FAFE32
:101EA0000020C4E7003C024008380240F465000806
:101EB0001000002008000020014800687047000062
:101EC000100000200448054900680968044AC1F36D
:101ED0008221515CC8407047100000200838024041
:101EE000046600080448054900680968044AC1F30B
:101EF0004231515CC8407047100000200838024051
:101F000004660008154810B5006810F00C0214486B
:101F100013D01449042A0FD0082A0ED10F4C241FC5
:101F20002268236802F03F025B0207D52068C0F3F5
:101F30008810A0FB010106E0084610BD2168C1F32E
:101F40008811A1FB00010023FEF73CFA2168C1F3D0
:101F50000141491C4900B0FBF1F010BD08380240B6
:101F60000024F400001BB7002DE9F84F04006ED0E8
:101F70002078DFF84C93C007A9F104054AD009F195
:101F800004000168C1F38101012908D00068C0F391
:101F9000810002280AD1D9F80000400206D528683D
:101FA000800337D560680028E1D033E06068B0F581
:101FB000803F10D0B0F5A02F286810D020F48030DA
:101FC0002860286820F4802028606068A8B1FFF7A6
:101FD00041FE06460DE0286840F48030F4E740F406
:101FE00080202860F7E700BFFFF734FE801B6428DD
:101FF00073D828688003F7D50CE0FFF72BFE064660
:1020000005E000BFFFF726FE801B6428F0D8286893
:102010008003F7D42078DFF8AC8280074FF0000A05
:102020003ED5A748001D016811F00C0F08D00068CC
:10203000C0F3810002280BD1D9F80000400207D478
:102040002868800716D5E068012800D112E033E146
:10205000E068B8B10120C8F80000FFF7FBFD0646B4
:1020600005E000BFFFF7F6FD801B0228C0D82868F6
:102070008007F7D52868216920F0F80040EAC10000
:1020800028600DE0C8F800A0FFF7E4FD064604E074
:10209000FFF7E0FD801B02281FD828688007F7D4CF
:1020A0002078000722D5864F87486169703771B163
:1020B00001210160FFF7CEFD064604E0FFF7CAFDEF
:1020C000801B022809D838688007F7D50EE0C0F8D1
:1020D00000A0FFF7BFFD064605E082E0FFF7BAFD6E
:1020E000801B02287DD838688007F7D42078400705
:1020F00068D5DFF8CCB100270BF13C0BDBF8000012
:10210000C0000BD4DBF8001041F08051CBF8001078
:10211000DBF80000012700F0805000906B4E306823
:10212000C00510D4306840F480703060FFF792FD35
:10213000009005E0FFF78EFD0099401A022850D864
:102140003068C005F6D55E4EA0686C3601280FD009
:102150000528306810D020F001003060306820F091
:1021600004003060A068B8B1FFF774FD00900FE084
:10217000306840F00100F4E740F004003060F7E719
:10218000FFF768FD0099411A41F28830814266D814
:1021900030688007F4D50EE0FFF75CFD009007E0A3
:1021A000FFF758FD0099411A41F28830814256D814
:1021B00030688007F4D42FB1DBF8001021F0805193
:1021C000CBF80010A069C8B33D49091D0968C1F3E7
:1021D000810102294AD00228504607D0C8F8600081
:1021E00000E03CE0FFF736FD04463BE04746C8F818
:1021F0006000FFF72FFD064605E000BFFFF72AFD50
:10220000801B02282BD828688001F7D4D4E9070165
:102210000843A16A2E4A490802EB0141626A41EA79
:102220008211084394F82C1040EA0161C9F80010AB
:1022300001203866FFF70EFD044606E03EE000BFD1
:10224000FFF708FD001B022809D828688001F7D590
:1022500034E000BFFFF7FEFC001B022802D9032078
:10226000BDE8F88F28688001F4D427E00128F7D072
:10227000D9F80000E26900F4800191421CD1226A81
:1022800000F03F01914217D147F6C071626A0140E8
:10229000B1EB821F10D1A26A4FF0FF3300F440313E
:1022A00003EB5202B1EB024F06D194F82C1000F070
:1022B0007060B0EB016F01D00120D1E70020CFE7C3
:1022C0000438024000004742800E47420070004040
:1022D0000000FFFF70B5040009D0606A002540B11E
:1022E00025616561A56294F8510040B10CE00120C0
:1022F00070BD6068B0F5827FF4D0E561F2E784F8E4
:102300005050204600F044F8022084F85100206824
:10231000016821F040010160A088218900F48270E9
:1023200001F404410843A18901F400610843217CC0
:1023300001F002010843217D01F001010843218BD6
:1023400001F400710843217F01F03801084394F83B
:10235000201001F080010843218D01F40051084351
:1023600021680860A069042101EA104094F8241053
:1023700001F010010843216848602068C16921F418
:102380000061C1616565012084F85100002070BDC5
:1023900010B586B0044614216846FEF778F9144952
:1023A0002068884221D113480021026842F480123B
:1023B0000260006800F4801005900E48143802682E
:1023C00042F020020260006800F0200005904FF407
:1023D000607000900220CDE90101032003900520E8
:1023E000049069460448FFF715FB06B010BD0000D5
:1023F00000500140443802400014024010B5401E15
:10240000B0F1807F01D3012010BD4FF0E024606166
:102410000F21601702F010F80020A0610720206152
:10242000002010BD7047704710B590F83C20012A7D
:1024300022D0012280F83C20CA688C6822F44072C5
:1024400022434C6822F4806222430C6822F400622A
:1024500022430C6922F4805222434C6922F4005238
:102460002243C969002322F480420A4301684A6476
:1024700080F83C30002010BD022010BD70B590F8EF
:102480003C20012A32D0012480F83C40022280F80E
:102490003D2003685A689D6822F070060A6832433E
:1024A0005A60134B02689A4214D0B2F1804F11D097
:1024B000104B9A420ED0104B9A420BD00F4B9A42BF
:1024C00008D00F4B9A4205D00E4B9A4202D00E4BC9
:1024D0009A4204D1496825F080031943916080F83D
:1024E0003D40002180F83C10084670BD022070BDC0
:1024F000000001400004004000080040000C0040C3
:1025000000040140004001400018004010B50400E4
:1025100003D094F83D0010B107E0012010BD002069
:1025200084F83C00204600F01FF8022084F83D00AB
:10253000211D206801F07AFC012084F8460084F80F
:102540003E0084F83F0084F8400084F8410084F89D
:10255000420084F8430084F8440084F8450084F87D
:102560003D00002010BD000008B501682948B1F108
:10257000804F11D0284A914216D1016841F01001D4
:1025800001600068002200F0100000900321362056
:10259000FFF7C6FB36202CE0016841F00101016025
:1025A000006800F0010032E01C4A91420ED101683F
:1025B00041F0200101600068002200F0200000903E
:1025C00011463720FFF7ACFB372012E0144A914246
:1025D00013D11048001D016841F40031016000680A
:1025E000002200F40030009004211920FFF798FB2E
:1025F0001920BDE80840FFF785BB0A4A914207D180
:10260000016841F040010160006800F04000009066
:1026100008BD000040380240001000400014004097
:10262000004401400018004090F83D10012901D0FD
:1026300001207047022180F83D100168CA6842F00D
:102640000102CA6000681149884214D0B0F1804F7D
:1026500011D00F4988420ED00E4988420BD00E4946
:10266000884208D00D49884205D00D49884202D0E1
:102670000C49884204D1816801F00701062903D082
:10268000016841F001010160002070470000014035
:102690000004004000080040000C0040000401401D
:1026A000004001400018004070B5044690F83C001E
:1026B0000025012817D0012684F83C60022084F808
:1026C0003D002068826822F0770222F47F42826017
:1026D0000868502838D00DDC20284FD005DC90B396
:1026E000102811D14AE0022070BD302846D0402881
:1026F0000AD13BE060282FD070280DD0B0F5805F64
:1027000003D0B0F5005F12D0012584F83D600020B1
:1027100084F83C00284670BDCB68D1E901212068CF
:1027200001F0E8FB2068816841F0770109E0CB689F
:10273000D1E90121206801F0DDFB2068816841F4C6
:1027400080418160E1E719E0CA684968206801F0CA
:10275000A5FC5021206806E0CA684968206801F09D
:10276000AEFC6021206801F0CFFBCEE7CA68496863
:10277000206801F093FC40212068F4E722680146BC
:102780001046F0E7704770B50446006801694FF0E5
:102790000005C943890715D4C168C943890711D405
:1027A000E91E0161012020772068806980072046AA
:1027B00002D0FFF7E7FF04E000F01CF9204600F02C
:1027C000D5F9257720680169C943490717D4C1683D
:1027D000C943490713D46FF0040101610220207737
:1027E0002068806910F4407F204602D0FFF7CAFFBE
:1027F00004E000F0FFF8204600F0B8F925772068E3
:102800000169C943090716D4C168C943090712D42D
:102810006FF008010161042020772068C0698007FB
:10282000204602D0FFF7AEFF04E000F0E3F82046B8
:1028300000F09CF9257720680169C943C90617D4BF
:10284000C168C943C90613D46FF0100101610820A3
:1028500020772068C06910F4407F204602D0FFF73F
:1028600091FF04E000F0C6F8204600F07FF92577DC
:1028700020680169C943C90708D1C168C943C907AC
:1028800004D1891E0161204600F072F920680169B7
:10289000C943090609D4C168C943090605D46FF0C4
:1028A000800101612046FFF7BDFD20680169C94331
:1028B000490609D4C168C943490605D46FF04001EF
:1028C0000161204600F070F920680169C94389065A
:1028D0000BD4C168C943890607D46FF02001016198
:1028E0002046BDE87040FFF79EBD70BD70B586B054
:1028F000044614216846FDF7CAFE246800223449C4
:1029000002230125B4F1804F16D03248844224D1ED
:10291000086840F0020008600868694600F002009C
:10292000059020200090CDE901322B48CDE903230A
:10293000FFF770F806B070BD086840F0010008604D
:102940000868694600F0010005900C200090CDE970
:102950000132CDE903252148EAE7214E2148B4425E
:102960000DD10C6844F480740C6009680095CDE9C1
:10297000013201F48071CDE90431039211E01A4D66
:10298000AC4210D10C6844F480740C60096801F406
:1029900080710591C0210091CDE901320321CDE97B
:1029A00003216946C4E711488442C3D1086840F056
:1029B000800008600868694600F0800005904020AB
:1029C0000090CDE901320920CDE903200848AFE7A6
:1029D0003038024000040040000402400000024081
:1029E000000C00400020024000040140001800409C
:1029F000001C0240704770B5044690F83C00002669
:102A00000D4601280FD0012084F83C006AB1042A49
:102A10001DD0082A2FD00C2A3FD00126002084F890
:102A20003C00304670BD022070BD206801F074FA91
:102A30002068816941F0080181612068816921F085
:102A400004018161206881692A69114311E02068CD
:102A500001F092FA2068816941F400618161206887
:102A6000816921F480618161206881692A6941EA74
:102A700002218161D2E7206801F0B4FA2068C169BF
:102A800041F00801C1612068C16921F00401C16100
:102A90002068C1692A69114311E0206801F0D6FA63
:102AA0002068C16941F40061C1612068C16921F4F5
:102AB0008061C1612068C1692A6941EA0221C1615E
:102AC000ACE710B5040003D094F83D0010B107E066
:102AD000012010BD002084F83C00204600F01EF8C4
:102AE000022084F83D00211D206801F09FF901209B
:102AF00084F8460084F83E0084F83F0084F84000E3
:102B000084F8410084F8420084F8430084F84400CB
:102B100084F8450084F83D00002010BD08B50F4A38
:102B200001680F48914207D1016841F0020101603C
:102B3000006800F0020009E00A4A914208D10168E9
:102B400041F008010160006800F00800009008BD35
:102B500005488142FBD10248001DE5E70004004022
:102B600040380240000C0040000401407047000063
:102B700010B5084900680968884209D10122D102CC
:102B80000548FFF761F8BDE8104004A002F0E0BE80
:102B900010BD0000780300200010024054494D365B
:102BA000427265616B3B0A007047704770470000D6
:102BB000F8B5016804460868CA684B6910F00F0F41
:102BC0004FF0000559D003F0010602F49077374327
:102BD00065D0C10705D0D10503D5216C41F00101B5
:102BE0002164410705D5D90703D0216C41F00201CA
:102BF0002164810705D5D90703D0216C41F0040178
:102C00002164010707D502F02001314303D0216C74
:102C100041F008012164216C00293AD0800604D5D6
:102C2000900602D5204601F098FA20684069216C90
:102C3000C0F38010090700D460B3204601F066FAA3
:102C400020684069400621D52068143050E8001FF4
:102C500021F0400140E80012002AF5D1A06BA8B194
:102C60006C490165A06BFEF77AFD002811D0A06BBE
:102C7000016D01B0BDE8F040084783060FD593060B
:102C80000DD52046BDE8F84001F067BA2046FFF7B1
:102C90008DFFF8BD2046FFF789FF2564F8BD266B40
:102CA0002023012E79D1C60677D5D60675D50868BA
:102CB000486800904869400640D5A16B08684068A4
:102CC0000004000CEAD0A28D8242E7D9E085C869F1
:102CD000B0F5807F2DD020680C3050E8001F21F423
:102CE000807140E80012002AF5D12068143050E8C5
:102CF000001F21F0010140E80012002AF5D12068F0
:102D0000143050E8001F21F0400140E80012002A72
:102D1000F5D184F83E30256320680C3050E8001F60
:102D200021F0100140E80012002AF5D1A06BFEF757
:102D3000CDFCA08DE18D401A81B229E0A08DE18DFE
:102D4000401A81B2E08D0028A8D00029A6D02068C2
:102D50000C3050E8002F22F4907240E80026002E3C
:102D6000F5D12068143050E8002F22F0010240E82D
:102D70000026002EF5D184F83E30256320680C3003
:102D800050E8002F22F0100240E80023002BF5D17C
:102D90002046FFF70AFFF8BDFFE705062BD515060D
:102DA00029D594F83D002128F5D1A068B0F5805FC1
:102DB00001D12069B0B1206A411C216221680078EC
:102DC0004860E08C401E0004000CE084E3D12068E1
:102DD000C16821F08001C1602068C16841F04001F4
:102DE000C160D8E7206A0088C0F308004860206A04
:102DF000801C2062E5E74006CDD55006CBD5CA68D9
:102E0000204622F04002CA6084F83D3000F07DFA8E
:102E1000C1E70000FD40000870B5040004D094F83C
:102E20003D00002510B106E0012070BD84F83C5043
:102E3000204600F023F8242084F83D002068C16873
:102E400021F40051C160204601F0E8F920680169D1
:102E500021F4904101612068416921F02A0141611A
:102E60002068C16841F40051C1602564202084F8C5
:102E70003D0084F83E00002070BD00002DE9F04FB9
:102E800087B0054614216846FDF701FCE048DF4B9A
:102E90002A68DF491038032600244FF002084FF05B
:102EA00008099A422ED10A6842F480120A60096821
:102EB00001F480110591016841F00401016001688D
:102EC00001F004010591016841F00801016000680A
:102ED00002AA00F0080005909814CDE9000882E8E5
:102EE00050026946CB48FEF795FD0420CDE9000865
:102EF00002AA694682E85002C748FEF78BFD07B078
:102F0000BDE8F08FC54FC64BBA4221D10A6842F0E6
:102F100080420A60096801F080410591016841F032
:102F200010010160006802AA00F0100005904FF443
:102F3000C070CDE9000882E8500269461846FEF7E5
:102F400069FD002204215220FEF7EAFE522021E012
:102F5000B44FBA4221D10A6842F000420A600968BF
:102F600001F000410591016841F010010160006825
:102F7000CDE9006800F01000CDE90490CDE90246EB
:102F800069461846FEF746FD002204215320FEF74D
:102F9000C7FE5320FEF7B6FEB1E7A34BDFF870E2A1
:102FA0001F150EF1040E4FF0070C4FF0006A9A4205
:102FB00037D1DEF8002042F01002CEF80020DEF813
:102FC000001001F010010591016841F0020101605B
:102FD000006802AA00F002000590C020CDE90008B8
:102FE00082E8501069469148FEF714FD914E9048D2
:102FF0003060C6E901A4C6E903477461B461F461B5
:10300000346230467462FEF78DFC08B1FDF724FD92
:10301000AE63002211462520B563FEF781FE252010
:10302000B8E7854B4FF0400B9A424AD10A6842F408
:1030300000320A60096801F400310591016841F02D
:1030400008010160006802AA00F0080005906020F5
:10305000CDE9000882E8501069466F48FEF7DAFCB7
:10306000744E764860363060C6E901A4C6E903476D
:103070007461B461F461346230467462FEF752FCEC
:1030800008B1FDF7E9FCAE63B5636A4E6B48C03624
:103090001830C6E903477461B461F4613462746244
:1030A00086E8010C3046FEF73DFC08B1FDF7D4FC84
:1030B0006E63002211462620B563FEF731FE2620FE
:1030C00068E75F4B9A424BD10A6842F480220A605B
:1030D000096801F480210591016841F0080101604F
:1030E000006802AA00F0080005904FF44070CDE996
:1030F000000882E8501069464748FEF78BFC4F48AD
:10310000504E60383060C6E901A4C6E903477461D7
:10311000B461F461346230467462FEF703FC08B1B6
:10312000FDF79AFCAE63B563464E444860363038CE
:10313000C6E903477461B461F4613462746286E87D
:10314000010C3046FEF7EEFB08B1FDF785FC6E631F
:10315000002211462720B563FEF7E2FD272019E77C
:1031600039498A427FF418AFDEF8002042F020028D
:10317000CEF80020DEF8001001F020010591016872
:1031800041F040010160006802AA00F04000059093
:103190004FF48440CDE9000882E8500269462B488C
:1031A000FEF738FC274E2248C036183830604FF002
:1031B0002068C6E90184C6E903477461B461F4611B
:1031C000346230467462FEF7ADFB08B1FDF744FC93
:1031D000AE63B5631E4E1648C6E903477461B46119
:1031E000F46134626030746286E801093046FEF7AB
:1031F00099FB08B1FDF730FC6E63002201214720E6
:10320000B563FEF78DFD4720C4E600000050004086
:103210004038024000080240000C024000780040A4
:1032200000100240007C00400010014000040240F9
:1032300040640240BC060020004400408860024018
:1032400000480040DC070020001401400018024044
:10325000FC080020704700002DE9F843044690F870
:103260003D001F4616460D4620284CD1C5B1BEB1C3
:1032700094F83C00012846D0012084F83C004FF02F
:103280000008C4F84080212084F83D00FEF7E2FCED
:10329000A6848146E684A068B0F5805F03D004E090
:1032A0000120BDE8F883206928B12E465FF00005B3
:1032B00084F83C800EE00026FAE78021204601F0E9
:1032C00033F8A0B9AEB116F8010B21684860E08C64
:1032D000401EE084E08C4B464FF00002009700282F
:1032E000EBD14FF04001204601F01EF830B1032031
:1032F000D7E735F8020BC0F30800E6E7202084F892
:103300003D000020CDE70220CBE770477FB50021CC
:103310002648009101910291234A03910260012401
:103320004FF480320461C0E90121047680F8201056
:103330001F4AC0E90A210425C561C16080F83040F8
:103340004461FDF7E2FC08B1FDF786FB1120CDE9F1
:1033500000040324694615480294FDF78BFB08B16D
:10336000FDF77AFB082000900220019069460F4883
:10337000FDF780FB08B1FDF76FFB0920CDE90004E4
:1033800069460A48FDF776FB08B1FDF765FB0A20A0
:10339000CDE9000569460548FDF76CFB002801D022
:1033A000FDF75AFB7FBD0000002001409400002083
:1033B0000100000F7FB50024154800940194029489
:1033C00012490394016001254FF480310561C0E981
:1033D0000114057680F820400E49C0E90A14C56141
:1033E000C46080F830504561FDF78FFC08B1FDF7EF
:1033F00033FB0095CDE9015469460548FDF73AFBDA
:10340000002801D0FDF728FB7FBD0000002101400E
:10341000DC0000200100000F0F4810B50D490160CD
:103420000321416000214FF400228160C0E90312B2
:103430004FF440124261017641768176C176017780
:103440004177FDF734FF002803D0BDE81040FDF7B9
:1034500003BB10BD00640040E40100200F4810B51C
:103460000D4901600321416000214FF40022816079
:10347000C0E903124FF44012426101764176817631
:10348000C17601774177FDF712FF002803D0BDE830
:103490001040FDF7E1BA10BD006800400C020020AA
:1034A0001CB50024104900940E4801940860084699
:1034B000FEF7C0F808B1FDF7CFFA00940022694684
:1034C00009480194FEF75EF808B1FDF7C5FA10222D
:1034D00069460548FEF756F8002801D0FDF7BCFA0A
:1034E0001CBD000000740040340200202D4808B5C7
:1034F000016841F400110160016801F400110091BC
:10350000016841F4800101600068002200F480003D
:10351000009011460C20FEF703FC0C20FEF7F2FB96
:10352000002211460E20FEF7FBFB0E20FEF7EAFB01
:10353000002211461020FEF7F3FB1020FEF7E2FBFD
:10354000002211461120FEF7EBFB1120FEF7DAFBFB
:10355000002211463820FEF7E3FB3820FEF7D2FBAD
:10356000002211463920FEF7DBFB3920FEF7CAFBAB
:10357000002211463A20FEF7D3FB3A20FEF7C2FBA9
:10358000002211463B20FEF7CBFB3B20FEF7BAFBA7
:10359000002211464520FEF7C3FBBDE80840452048
:1035A000FEF7B0BB303802402DE9F04786B0142159
:1035B0006846FDF76CF861480024016841F010018D
:1035C0000160016801F010010591016841F00201FC
:1035D0000160016801F002010591016841F04001BC
:1035E0000160016801F040010591016841F00401AA
:1035F0000160016801F004010591016841F00101D9
:103600000160016801F001010591016841F00801C4
:103610000160016801F008010591016841F48071C1
:103620000160016801F480710591016841F0200199
:103630000160016801F020010591016841F08001FD
:10364000016000683E4E00F0800042F2FE150590D9
:10365000002229463046FEF7F7FA3A4F002241F69B
:1036600070013846FEF7F0FADFF8DC80002244F201
:1036700041014046FEF7E8FADFF8D09000223C21F5
:103680004846FEF7E1FA012202214046FEF7DCFA45
:10369000DFF8BCA000220C215046FEF7D5FA0095B9
:1036A0000125CDE90154694630460394FEF7B2F98D
:1036B0001020CDE9000502200290039069463846AB
:1036C000FEF7A8F94FF4C3500090CDE901546946C4
:1036D00038460394FEF79EF944F243000090CDE98A
:1036E0000154694640460394FEF794F93C2000904B
:1036F000CDE90154694648460394FEF78BF90C2046
:103700000090CDE90154694650460394FEF782F9D2
:10371000042000904FF48810CDE9010469460D485B
:10372000FEF778F9002211460820FEF7F9FA082082
:10373000FEF7E8FA06B0BDE8F08700003038024036
:10374000001802400010024000140240001C024019
:103750000008024000040240104810B50E49016004
:103760004FF48271416000218160C1604FF40072AA
:103770000161C0E905123022C0E90721416281627E
:103780000A21C162FEF7A6FD002803D0BDE8104063
:10379000FDF762B910BD0000005001404802002052
:1037A0000B4810B509490160A7214160002142F290
:1037B0001072C0E9021201618161FEF7A7FE0028C4
:1037C00003D0BDE81040FDF747B910BD00440140EB
:1037D0005004002010B58CB000240794089409947C
:1037E0001C2168460A94FCF752FF1B4819490160E6
:1037F0005321C0E9011440F6C311C0E903148461E8
:10380000FEF784FE08B1FDF727F94FF480500790CA
:1038100007A91148FEF748FF08B1FDF71DF90E484A
:10382000FFF74FF908B1FDF717F9602000904FF44A
:103830007A70CDE901040022694607480494FFF735
:10384000DAF808B1FDF708F90348FFF74FF80CB0B4
:1038500010BD0000001800409804002010B58EB084
:1038600000240794089409940A940B941C21684638
:103870000C94FCF70CFF22484FF08041016053216B
:10388000C0E9011444F63721C0E903148461FEF74E
:103890003DFE08B1FDF7E0F84FF48050079007A90E
:1038A0001748FEF701FF08B1FDF7D6F81448FFF7F7
:1038B00008F908B1FDF7D0F80B940BA910480C9447
:1038C000FEF7DCFD08B1FDF7C7F86020CDE9000484
:1038D0000294082269460A480494FFF78CF808B15C
:1038E000FDF7BAF80C2269460548FFF784F808B1DD
:1038F000FDF7B2F80248FEF7F9FF0EB010BD000068
:10390000A002002010B58AB0002407941C2168464C
:103910000894FCF7BCFE16481449C0E900144FF6A1
:10392000FF71C0E9024104618461FFF7CAF808B180
:10393000FDF792F8079407A90D480894FEF79EFD3D
:1039400008B1FDF789F86020CDE900040294042253
:10395000694607480494FFF74EF808B1FDF77CF874
:103960000348FEF7C3FF0AB010BD0000000400408A
:10397000E802002010B58AB0002407941C21684694
:103980000894FCF784FE1748154901605321C0E9EB
:1039900001141549C0E903148461FFF792F808B1D6
:1039A000FDF75AF8079407A90E480894FEF766FD3C
:1039B00008B1FDF751F8602000904FF47A70CDE91E
:1039C00001040C22694607480494FFF714F808B173
:1039D000FDF742F80348FEF789FF0AB010BD00006A
:1039E000000C00403003002040420F001CB50024B2
:1039F0000E4800940C49019401605321C0E9011460
:103A00004FF47A718461C160FEF780FD08B1FDF763
:103A100023F80094694605480194FEF72FFD00281D
:103A200001D0FDF719F81CBD0010004078030020FC
:103A30001CB500240E4800940C49019401605321E8
:103A4000C0E901144FF47A718461C160FEF75EFD34
:103A500008B1FDF701F80094694605480194FEF7A6
:103A60000DFD002801D0FCF7F7FF1CBD001400403D
:103A7000C003002010B592B000240F941C216846AA
:103A80001094FCF704FE202107A8FCF700FE244850
:103A9000224901600721C0E901144AF20F41C0E93F
:103AA000031444618461FFF70CF808B1FCF7D4FFFC
:103AB0000F940FA91A481094FEF7E0FC08B1FCF728
:103AC000CBFF6020CDE90004029403940494059494
:103AD0000422694612480694FEF78DFF08B1FCF7F0
:103AE000BBFF082269460E48FEF785FF08B1FCF7C8
:103AF000B3FF0794089409944FF400500A94CDE959
:103B00000B4007A906480E94FEF78EFC08B1FCF79F
:103B1000A3FF0348FEF7EAFE12B010BD0004014007
:103B2000080400200C4810B50A4901604FF4E13147
:103B30004160002181600C22C160C0E904128161F2
:103B4000C161FFF769F9002803D0BDE81040FCF718
:103B500083BF10BD00500040E00400200C4810B5A9
:103B60000A4901604FF4E1314160002181600C227B
:103B7000C160C0E904128161C161FFF74DF90028FD
:103B800003D0BDE81040FCF767BF10BD00780040CF
:103B9000240500200C4810B50A4901604FF4E131BA
:103BA0004160002181600C22C160C0E90412816182
:103BB000C161FFF731F9002803D0BDE81040FCF7E0
:103BC0004BBF10BD007C0040680500200E4810B5BA
:103BD0000C4901600D4941604FF480518160002122
:103BE0004FF48062C0E903120422C0E90521C161DB
:103BF000FFF712F9002803D0BDE81040FCF72CBFF6
:103C000010BD000000100140AC050020A08601009E
:103C10000C4810B50A4901604FF4E13141600021C0
:103C200081600C22C160C0E904128161C161FFF7AB
:103C3000F3F8002803D0BDE81040FCF70DBF10BD1D
:103C400000440040F00500200C4810B50A4901600E
:103C50004FF4E1314160002181600C22C160C0E974
:103C600004128161C161FFF7D7F8002803D0BDE8D5
:103C70001040FCF7F1BE10BD0048004034060020A3
:103C80000C4810B50A4901604FF4E1314160002150
:103C900081600C22C160C0E904128161C161FFF73B
:103CA000BBF8002803D0BDE81040FCF7D5BE10BD1E
:103CB0000014014078060020FEE7FEE710B501F091
:103CC0002BFE02F08DF9BDE8104001F033BE00007C
:103CD00030B593B030216846FCF7D9FC14210CA80C
:103CE000FCF7D5FC1F480025016841F080510160B8
:103CF000006800F0805011901B48016841F4404179
:103D000001600068022400F44040119009200090F6
:103D10004FF4803001900120CDE905048005079023
:103D200006200890A820CDE9090404200B906846DD
:103D3000FEF71AF908B1FCF78FFE0CA90F2081E8F5
:103D400031004FF4A0500F904FF480501090052197
:103D50000CA8FEF717F8002801D0FCF77DFE13B081
:103D600030BD0000403802400070004070B5194C72
:103D70002068194A10F00C01184804D0184D042985
:103D800003D0082903D002601BE0056019E0114947
:103D9000091F0B68C3F380560B6803F03F0316B18D
:103DA000B5FBF3F201E0B2FBF3F20B680968C3F371
:103DB00088135A43C1F30141491C4900B2FBF1F198
:103DC00001602168074AC1F30311515C0268CA40CF
:103DD000026070BD083802400024F400100000208A
:103DE000001BB700F46500080248016841F4700147
:103DF0000160704788ED00E00148FEF7C4BC000098
:103E00005004002010B50448FDF7E0FBBDE8104069
:103E10000248FEF7B8BC00003402002078030020FE
:103E20000148FEF7B0BC0000C0030020F0B50268F6
:103E3000254C264D264E274F274B4FF0804CA04255
:103E400009D0604507D0A84205D0B04203D0B8429F
:103E500001D0984204D122F0700E4A6842EA0E0264
:103E6000A0421BD0604519D0A84217D0B04215D04F
:103E7000B84213D0984211D0184DA8420ED0184D18
:103E8000A8420BD0174DA84208D0174DA84205D024
:103E9000164DA84202D0164DA84203D122F4407517
:103EA000CA682A434D6922F080022A4302608A6868
:103EB000C2620A688262A04201D0984201D10969B7
:103EC000016301214161F0BD000001400004004098
:103ED00000080040000C0040000401400040014088
:103EE000004401400048014000180040001C004010
:103EF0000020004010B5846842EA032224F47F4485
:103F00000A432243826010BD826822F070020A4395
:103F100042F0070181607047F0B5026A22F00102A9
:103F20000262036A42688469124E24F073050C68C9
:103F30002C4323F002058B682B430D4DA84201D082
:103F4000B04205D123F00807CB683B4323F00403BC
:103F5000A84201D0B04205D14D6922F44072154308
:103F60008A692A4342608461496841630362F0BD03
:103F70000000014000040140F0B5026A22F0100286
:103F80000262026A436884690D6824F4E64444EAE4
:103F900005248D6822F0200242EA05120F4D104ED2
:103FA000A84201D0B04206D1CF6822F0800242EA96
:103FB000071222F04002A84201D0B04207D14D6959
:103FC00023F4406343EA85038D6943EA8503436034
:103FD0008461496881630262F0BD00000000014015
:103FE00000040140F0B5026A22F480720262026AA3
:103FF0004368C46922F4007224F073050C68124E01
:104000002C438D6842EA05220E4DA84201D0B042F1
:1040100006D1CF6822F4006242EA072222F48062CD
:10402000A84201D0B04207D14D6923F4405343EA7E
:1040300005138D6943EA05134360C4614968C16390
:104040000262F0BD000001400004014030B5026A88
:1040500022F480520262046A4268C3690D6823F444
:10406000E64343EA05238D6824F4005444EA05340A
:10407000084DA84202D0084DA84204D14D6922F44F
:10408000804242EA85124260C36149680164046269
:1040900030BD0000000001400004014010B5036A7B
:1040A000046A24F001040462846924F0F00444EA00
:1040B000021423F00A020A438461026210BD10B5A3
:1040C000036A23F0100303628369046A23F47043D4
:1040D00043EA023224F0A00343EA01118261016243
:1040E00010BD00000148FEF763BD0000240500205C
:1040F0000148FEF75DBD00006805002010B5806B2B
:104100000021C185C184FEF751FD10BD01680C314D
:1041100051E8002F22F4907241E80023002BF5D1E2
:104120000168143151E8002F22F0010241E8002318
:10413000002BF5D1016B012909D101680C3151E83F
:10414000002F22F0100241E80023002BF5D120219E
:1041500080F83E1000210163704708B590F83E10CA
:10416000222901D0022008BD82684FF480539A4270
:1041700001D1016921B1816A9A421BD04AB10AE09A
:104180000268816A5268C2F308020A80816A891C47
:1041900008E0026972B10268526802F07F020A7098
:1041A000816A491C8162C18D491E0904090CC185BF
:1041B00003D019E002685268F1E70168CA6822F08A
:1041C0002002CA600168CA6822F48072CA6001686D
:1041D0004A6922F001024A61202180F83E10016BF9
:1041E000012903D0FFF736F8002008BD0021016344
:1041F00001680C3151E8002F22F0100241E8002341
:10420000002BF5D101680A68D20602D50A68496810
:104210000091818DFEF7C9FCE6E7000070B5044609
:1042200000680169E26821F440511143016121698C
:10423000A068E26908436169114308432168CA68BC
:1042400049F20C639A430243CA6020684169A2693B
:1042500021F440711143416131492068884202D004
:104260003049884202D1FDF73DFE01E0FDF72AFE0C
:10427000E2690023192164253226B2F5004F6268F5
:1042800028D0A0FB0101930F9200FCF79BF8014698
:10429000B0FBF5F06FF01802504301EB800006EB25
:1042A0000010B0FBF5F000F0F002B1FBF5F002EB0E
:1042B0000012B1FBF5F06FF01803584301EB8000DA
:1042C00006EB0010B0FBF5F000F00F002168104481
:1042D000886070BDA0FB010192185B41FCF772F889
:1042E0000146B0FBF5F00201B1FBF5F06FF01803E9
:1042F000584301EB800006EBC000B0FBF5F000F086
:10430000F80002EB4002B1FBF5F0584301EB8000EE
:1043100006EBC000B0FBF5F000F00700D6E70000A8
:1043200000100140001401402DE9F0419846174665
:104330000E460446069D27E0681C25D02DB1FDF7EA
:1043400089FCA0EB0800A8421ED920680C3050E878
:10435000001F21F4D07140E80012002AF5D1206836
:10436000143050E8001F21F0010140E80012002A3B
:10437000F5D1202084F83D0084F83E00002084F828
:104380003C000320BDE8F0812068006836EA0000A8
:1043900004D00020B842CFD00020F3E70120F9E795
:1043A0000148FEF705BC0000AC0500200148FEF7FF
:1043B000FFBB0000F00500200148FEF7F9BB00003C
:1043C000340600200148FEF7F3BB00007806002009
:1043D000FEE730B4446800F10802436A204630BC6E
:1043E0000021FCF7F2BD000010B504468AB0114868
:1043F000606000210120CDE9061000910391049135
:10440000019102910591CDE9080169466068FCF7C8
:1044100055FD6068FDF782F802216068FCF73CFDFD
:1044200001216068FCF738FD08B1FCF715FB0AB004
:10443000204610BDE40100200907090E002804DB16
:1044400000F1E02080F80014704700F00F0000F148
:10445000E02080F8141D7047002807D00E4910F0A6
:10446000FF0F04D051FA80F00078401C704710F420
:104470007F4F04D0C0F30720085C0930704710F468
:104480007F0F04D0C0F30740085C1130704701EB88
:1044900010600078193070470C6600080148FFF77B
:1044A000A3BF0000081600202DE9F04F89B0924606
:1044B0008B460646002400E0641C305D202803D0B3
:1044C000092801D05C45F7D34FF0FF387CB3194879
:1044D00004F10609184F056811E0062217A12868A3
:1044E000FCF72AF850B9286822463146801DFCF7AF
:1044F00023F818B9296811F8090020B10C3538687B
:104500008542EAD314E0AC688CB120216846FCF700
:10451000BEF86A465946304600F0CAFE38B16946D0
:10452000A047CAF80000002009B0BDE8F08FFFE7FF
:104530004046F9E77C000020800000205F5F636D4B
:10454000645F00002DE9FC411F460446DDE90831A7
:10455000DDE90A65143040600060C4E90827C4E959
:104560000A310A46232118461C3401F045FAD4E9E1
:1045700003014218D4E90101104B121F01F0AEF9FA
:1045800044F81A0B002004F801690D4A04F8036B83
:10459000E4E8020544F8105901C404F83C0B01C4D6
:1045A00044F87409009023460190194604F1440030
:1045B00001F0AAFD0020BDE8FC810000515D00086B
:1045C0001F5F0008143001F0F3B970B50546FBF722
:1045D0005FFE296F044609B1284688472046BDE89A
:1045E0007040FBF759BE000010B51BA001F0B0F9F8
:1045F0001C4C21781CA001F0ABF92078C00702D038
:104600001FA001F0A5F92078800702D51FA001F0B6
:104610009FF92078400702D51FA001F099F9207872
:10462000000702D520A001F093F92078C00602D53A
:1046300020A001F08DF92078000607D509480F3039
:104640000168BDE810401DA001F082B9BDE810402E
:104650001EA001F07DB90000627573206661756C63
:10466000743A0A0029ED00E05343425F4346535237
:104670005F424653523A30782530325820000000CD
:1046800049425553455252200000000050524543C4
:104690004953455252200000494D50524543495319
:1046A0004552522000000000554E53544B45525283
:1046B0002000000053544B45525220005343422DDA
:1046C0003E424641523A253038580A000A0000005E
:1046D00010B500F029FB002010BD0000104810B5F7
:1046E000416991F82110890703D40E490020087010
:1046F00013E0016921B180220A48FBF7EFFF0CE0CB
:1047000000F0D4FD08B108A100E009A10548FBF7BD
:10471000D0FE09A10348FBF75AFF024810BD000074
:104720007C000020941000206D73682000000000C1
:1047300066696E73682000003E0000000349496905
:1047400011F8212F60F341020A7070477C000020AD
:10475000014AC2E9000170477C0000207FB514497E
:104760001448FFF7F5FF154C13480A23A0F58F6591
:10477000606115224FF48061A0F580608DE80F0024
:1047800000230F4A0FA1783801F02EFB06460023C4
:104790001A460EA1606901F01FFA0120FFF7CEFF53
:1047A00016B9284601F084FB04B0002070BD00005B
:1047B000BC6900082C690008901500207C000020CE
:1047C000D5470008747368656C6C00007368727874
:1047D00000000000984D686910F8211F41F00101A8
:1047E0000170FFF77BFF01F0B3F8002600F032FF05
:1047F0000400FBD41B2C07D0686990F82010012915
:1048000007D002290ED017E06969012081F8200045
:10481000ECE75B2C02D080F820600DE0022180F8EC
:104820002010E3E780F82060412CDFD0422CDDD05F
:10483000442C38D0432C43D0002CD7D0FF2CD5D0DB
:10484000092C4ED07F2C75D0082C73D00D2C70D035
:104850000A2CFCD0B0F87210502901D3A0F8726075
:10486000B0F87430B0F872108B427DD2CA1A00F1E1
:10487000220123301944184401F0A4F86869B0F803
:10488000741022300C54686990F82110C90706D0C2
:10489000B0F874102230014468A001F059F868693A
:1048A000B0F87440A5E0B0F8740000289ED064A071
:1048B00001F04EF8686930F8741F491E018095E7D1
:1048C000B0F87410B0F8722091428FD22230095C97
:1048D0005CA001F03DF8696931F8740F401C088054
:1048E00084E7002403E056A001F032F8641C6869F4
:1048F000B0F87400A042F6DC6C6953A0223401F0D9
:1049000027F800F0D3FC012802D1204600F00AFC71
:10491000FFF7E4FE014622464CA001F019F8686951
:104920002230FBF7EAFD696921F8720F48805DE7E4
:1049300000E03DE0B0F87420002AC0D0B0F872105A
:10494000521E491E89B293B2A0F87210A0F87430BA
:10495000994224D9CA1A00F123012230194418447B
:1049600001F030F8686900E049E0B0F872102230D8
:104970000E546869B0F874102230014435A000F07C
:10498000E7FF6869B0F8744003E02DA000F0E0FF95
:10499000641C6869B0F87200A04290DBF5E72FA0B4
:1049A00000F0D6FF6869B0F8721022300E541DE78F
:1049B00000F07CFC01280DD1686990F82100C00747
:1049C00002D021A000F0C4FF6869B0F87210223054
:1049D00000F0FEFBFFF782FE00F0BAFF686950218D
:1049E0002230FBF732FE686922E015A000F0B0FF2C
:1049F000641C6869B0F87200A042F6DC0AE022305C
:104A00000C54686990F82100C00703D021460DA01E
:104A100000F09EFF6869B0F87210491C89B2A0F8D6
:104A20007210B0F87420521CA0F874205029BED324
:104A300020F8726F4680D9E67C00002025730000C4
:104A400008000000256300000A000000257325739C
:104A5000000000000825732020080000082008003E
:104A600010B5124C2068800702D511A000F070FF2D
:104A70002068400011D50D48C01E007808B1FFF72E
:104A8000B3FD0A48001F007808B100F0DFFA0748BC
:104A9000801E008808B101F037FD2068002804DA84
:104AA000BDE8104008A000F053BF10BD2CED00E0A1
:104AB0006661696C656420766563746F72206665F3
:104AC0007463680A0000000064656275672065769B
:104AD000656E740A0000000010B502A000F038FFF7
:104AE000002010BD48656C6C6F2052542D546872C4
:104AF000656164210A00000070B50CA000F028FF79
:104B00000F48104D04680BE002220FA12068FBF74C
:104B100013FD20B1D4E900120CA000F019FF0C34F1
:104B200028688442F0D3002070BD00002D2D46750A
:104B30006E6374696F6E204C6973743A0A000000EA
:104B40007C000020800000205F5F0000252D3136B2
:104B500073202D2D2025730A000000002DE9F0415F
:104B600004461E4617460D46084600F07BFF001D12
:104B70002060257200206760C4E90360BDE8F08111
:104B80002DE9F0410D4600212961E96891B1297AAA
:104B900081B12E6888B10446FBF77AFB0146A4F187
:104BA0000C002A7A007A20F08000904209D0084652
:104BB000FBF772FB0020BDE8F0813446FBF768FB91
:104BC0000146686800272468B44201D1002404E04B
:104BD00010C0EA687F1CBA42F5D10846FBF75CFBBF
:104BE00020462F61E7E700002DE9F04194B000274F
:104BF00033A408230BAA022105A8FFF7AFFF082062
:104C000080460146224631A000F0A2FE404600F058
:104C1000B7FB35A000F09CFE05A93846FFF7B0FFB2
:104C20000746002642E00BA850F826400C3CFBF754
:104C30002FFB217A9DF81C2021F08001914202D0A7
:104C4000FBF72AFB31E0FBF727FB04F11400616955
:104C5000054681421ED000F099FEA18BCDE90010DF
:104C600023460822414626A000F072FE2C680BE085
:104C7000A4F1140126A000F06BFE2068A84202D027
:104C800024A000F065FE2468AC42F1D115A000F02C
:104C90005FFE0AE000F07AFEA18BCDE9001023460A
:104CA000082241461CA000F053FE761C0998B04231
:104CB000B9DC002FB0D114B00020BDE8F0810000B5
:104CC00073656D6170686F7265000000252D2A2E76
:104CD00073207620202073757370656E642074686D
:104CE000726561640A000000202D2D2D202D2D2DD0
:104CF0002D2D2D2D2D2D2D2D2D2D2D0A00000000BB
:104D0000252D2A2E2A7320253033642025643A006D
:104D1000257300002F000000252D2A2E2A73202540
:104D20003033642025640A002DE9F041B4B0002638
:104D30003CA408232CAA012126A8FFF70FFF082076
:104D4000804601462246394800F002FE404600F007
:104D500017FB37A000F0FCFD26A93046FFF710FF37
:104D60000646002554E02CA850F825400C3CFBF7E3
:104D70008FFA0746207A9DF8A01020F08000884224
:104D800003D03846FBF788FA41E07822214607A88D
:104D9000FBF729FC3846FBF77FFA94F835000090C2
:104DA00023460822414632A000F0D2FD94F8340098
:104DB00000F00F00012807D0022807D040B10428D6
:104DC00008D0032808D00AE02CA006E02EA004E0BA
:104DD00030A002E032A000E034A000F0B9FDA06AEB
:104DE000014600E0401C0278232AFBD0E26A401A08
:104DF000101A64235843B0FBF2F3276B206CCDE903
:104E00000007E069081A81182BA000F0A1FD6D1CB5
:104E10002A98A842A7DC002E9ED134B00020BDE81D
:104E2000F0810000746872656164000030670008FA
:104E3000202D2D2D20202D2D2D2D2D2D2D202D2DD6
:104E40002D2D2D2D2D2D2D2D202D2D2D2D2D2D2D9F
:104E50002D2D2D20202D2D2D2D2D2D20202D2D2DB6
:104E60002D2D2D2D2D2D2D202D2D2D0A0000000056
:104E7000252D2A2E2A732025336420002072656197
:104E800064792020000000002073757370656E64E3
:104E90000000000020696E697420202000000000DE
:104EA00020636C6F73652020000000002072756E17
:104EB0006E696E6700000000203078253038782059
:104EC0003078253038782020202025303264252580
:104ED00020202030782530387820253033640A00AF
:104EE000F0B593B0002626A408230BAA0A2104A833
:104EF000FFF734FE08272246394623A000F028FD9C
:104F0000384600F03DFA2AA000F022FD04A9304600
:104F1000FFF736FE0646002524E00BA850F8254092
:104F20000C3CFBF7B5F9217A9DF8182021F080019F
:104F3000914202D0FBF7B0F913E0FBF7ADF9D4E9E9
:104F40000901CDE9000123460822394621A000F0DD
:104F5000FFFC607AC00701D024A000E026A000F08A
:104F6000F7FC6D1C0898A842D7DC002ECED101F0CA
:104F700031F8014624A000F0EBFC13B00020F0BD96
:104F800074696D6572000000252D2A2E7320207033
:104F90006572696F64696320202074696D656F753F
:104FA0007420202020202020666C61670A00000009
:104FB000202D2D2D2D2D2D2D2D2D2D202D2D2D2D3B
:104FC0002D2D2D2D2D2D202D2D2D2D2D2D2D2D2D1E
:104FD0002D2D0A00252D2A2E2A73203078253038D1
:104FE00078203078253038782000000061637469BB
:104FF00076617465640A0000646561637469766152
:105000007465640A0000000063757272656E742036
:105010007469636B3A3078253038780A00000000F4
:1050200001A000F095FCFEE748656C6C6F205254BF
:1050300020546872656164200A00000010B500F019
:105040006FFABDE81040FFF7EBBF000010B518A0E5
:1050500000F07EFC1B4C21781BA000F079FC20782E
:10506000C00702D01EA000F073FC2078800702D594
:105070001EA000F06DFC2078000702D51EA000F0F5
:1050800067FC2078C00602D51EA000F061FC2078E5
:10509000000607D50B480C300168BDE810401CA085
:1050A00000F056BCBDE810401D4800F051BC0000A7
:1050B0006D656D206D616E616765206661756C74EC
:1050C0003A0A000028ED00E05343425F4346535242
:1050D0005F4D4653523A3078253032582000000058
:1050E0004941434356494F4C20000000444143434B
:1050F00056494F4C200000004D554E53544B4552DD
:10510000522000004D53544B4552522000000000E5
:105110005343422D3E4D4D41523A253038580A00F6
:10512000786500082DE9F0478046002500782C4678
:1051300018B12248224F066831E0BDE8F04700214F
:10514000084600F077B806221EA13068FBF7F4F994
:1051500020BB306800F106094046FBF7CEF9024655
:1051600049464046FBF7E8F9C0B925B94C464846E0
:10517000FBF7C3F905464946204601E0401C491C9F
:1051800002781AB10B780BB19A42F7D0001BA842F3
:1051900000DA054649460DA000F0DAFB0C36386807
:1051A0008642D0D3002C06D02A4621464046BDE890
:1051B000F04700F083BDBDE8F08700007C000020D0
:1051C000800000205F5F636D645F000025730A004C
:1051D00038B5044601E0491E641C59B120782028E6
:1051E000F9D00928F7D06A462046FFF75DF918B1D3
:1051F000204604E0002038BD009838BD401C0178EE
:10520000202901D00029F9D100210170214603A0F5
:1052100000F09EFB4FF0FF3038BD000025733A20B0
:10522000636F6D6D616E64206E6F7420666F756E56
:10523000642E0A0070B50EA000F08AFB1348144DCE
:1052400004680CE0062213A12068FBF775F928B961
:10525000D4E9001211A0891D00F07AFB0C342868F3
:105260008442EFD310A000F073FB002070BD00005B
:1052700052542D546872656164207368656C6C20AB
:10528000636F6D6D616E64733A0A00007C000020EC
:10529000800000205F5F636D645F0000252D313664
:1052A00073202D2025730A000A000000012070479A
:1052B00070B5002315461C461A464BE000F8012B3A
:1052C0005B1C0678202E01D0092E01D18B42F5D32C
:1052D000082C11D321A000F03BFB002606E000BF04
:1052E00055F8261025A000F033FB761CA642F7D314
:1052F00021A000F02DFB2FE08B422DD2F6B2222E02
:1053000003D045F82400641C1BE0401C45F8240031
:105310005B1C641C08E05C2E04D14678222E01D16F
:10532000401C5B1C401C5B1C0678222E01D08B426B
:10533000F1D38B4210D200F8012B5B1C0AE0401C19
:105340005B1C0678202E03D0092E01D08B42F6D3A9
:105350008B4201D28B42B4D3204670BD546F6F2074
:105360006D616E7920617267732021205765206F0F
:105370006E6C79205573653A0A0000002573200091
:1053800010B5044602E003A000F0E2FA641EFAD26F
:1053900010BD00002D0000002DE9F04F85B09946AA
:1053A000DDE90EA5109CAB46630602D5DFF814C1FB
:1053B00003E0DFF810C1ACF1110CE30601D524F0D5
:1053C0000104E30701D0302300E0202300260493EA
:1053D000A3070BD5002A02DA2D26524206E0630706
:1053E00001D52B2602E0230700D520260023EE4618
:1053F00022B930228DF8002001230CE0B9F10A0F08
:1054000014D002F00F0812091CF808800EF803806F
:105410005B1C002AF2D1AB4200DD1D46AAEB05025F
:1054200014F0110F4FF0200708D015E00A27B2FB47
:10543000F7F807FB1828B2FBF7F2E5E73EB1002AC0
:1054400005DD521E03E0884200D20770401CB2F115
:10545000000CA2F10102F6DC26B1884200D20670EF
:10546000401C521EE40605D508E0884201D2049C87
:105470000470401C141EA2F10102F6DC30242E46FA
:105480006D1E9E420ADD884200D20470401CF6E781
:10549000884201D2E55C0570401C00E074461D1E88
:1054A000A3F1010307DDBBF1000FF1D103E0884256
:1054B00000D20770401C131EA2F10102F7DC05B0F8
:1054C000BDE8F08F1D6700081FB50A4C14230A229F
:1054D0004FF48061A4F580608DE80F000023064A38
:1054E00006A1204600F080FC04B02046BDE8104034
:1054F00000F0DEBC600D00203D5000086D61696E5B
:105500000000000070B5044C044D02E020688047A4
:10551000241DAC42FAD370BD186900082069000848
:1055200070B5044C044D02E020688047241DAC4255
:10553000FAD370BD206900082869000810B5FAF791
:10554000A7FE044A5188491C5180BDE81040FAF773
:10555000A3BE00004C00002010B5FAF799FE0B4CDA
:105560006188491E09B2618000290ADC002161803E
:10557000FAF792FE6068002807D0BDE8104000F0FE
:10558000B3BABDE81040FAF787BE10BD4C0000204A
:1055900010B5FCF765FBFEF79BFBFEF7E7FBFCF79E
:1055A0008BFC4FF47A71B0FBF1F0FCF727FFFFF7AB
:1055B000A9FFFDF7F9FFFDF799FFFDF72DFFFDF7B7
:1055C0004DFFFEF7C9F8FEF701FBFEF70FFAFEF7F5
:1055D00001F9FEF755FBFEF72BFAFEF7E1F8FEF7AF
:1055E0003DF9FEF7C7F9FEF72FFBFEF7B7FAFDF717
:1055F0008DFEFEF7CFFAFEF70BFBFEF73BFAFEF748
:1056000081F9FDF74DFFFDF7D5FEFEF78BFA0E4C45
:10561000012204212046FCF717FB01220821204625
:10562000FCF712FB012210212046FCF70DFB0122A2
:1056300020212046FCF708FB0448FCF7F5FFBDE8F5
:1056400010400348FCF7F0BF001C02407803002024
:10565000C0030020084810B500684FF0FF3401680F
:10566000C943890602D44068C4B202E00A2000F0AF
:10567000D3FBE0B210BD000050100020F8B5064684
:105680000D200F498DF80000002481F83C40304681
:1056900000F00CFB05460FE0305D0A2805D1012320
:1056A0001A4669460648FDF7D7FD012331191A4607
:1056B0000348FDF7D1FD641CAC42EDD3F8BD0000FA
:1056C0002405002070B531490546283009682C1D95
:1056D00011B18847002857D02DA0216C00F038F96F
:1056E0002FA0616A00F034F931A0A16A00F030F90E
:1056F00033A0E16A00F02CF935A0216B00F028F905
:1057000037A0616800F024F939A0A16800F020F901
:105710003BA0E16800F01CF93DA0216900F018F9F8
:105720003FA0616900F014F941A0A16900F010F9EF
:1057300043A0E16900F00CF945A0216A00F008F9E6
:1057400047A0616B00F004F949A0A16B00F000F9DB
:105750004BA0E16B00F0FCF82878400708D500F07A
:1057600081FB01464AA000F0F3F8FFF7DDFA02E002
:105770004FA000F0EDF82878C00602D453A000F046
:10578000E7F8FFF76DF9FEE770BD00006C00002040
:105790007073723A203078253038780A00000000A3
:1057A0007230303A203078253038780A0000000016
:1057B0007230313A203078253038780A0000000005
:1057C0007230323A203078253038780A00000000F4
:1057D0007230333A203078253038780A00000000E3
:1057E0007230343A203078253038780A00000000D2
:1057F0007230353A203078253038780A00000000C1
:105800007230363A203078253038780A00000000AF
:105810007230373A203078253038780A000000009E
:105820007230383A203078253038780A000000008D
:105830007230393A203078253038780A000000007C
:105840007231303A203078253038780A0000000074
:105850007231313A203078253038780A0000000063
:105860007231323A203078253038780A0000000052
:10587000206C723A203078253038780A0000000019
:105880002070633A203078253038780A0000000014
:1058900068617264206661756C74206F6E20746834
:1058A000726561643A2025730D0A0D0A000000003C
:1058B00068617264206661756C74206F6E20686127
:1058C0006E646C65720D0A0D0A000000465055208A
:1058D000616374697665210D0A00000070B50446A5
:1058E000121D22F0070000220A4D443840F82250D1
:1058F000521C112AFAD3416200218162C16200F177
:105900003402016382E81A004FF08073036401607F
:1059100070BD0000EFBEADDE10B5FAF7B9FC044A69
:105920001178491C1170BDE81040FAF7B5BC0000B1
:105930001800002010B5FAF7ABFC044A1178491E94
:105940001170BDE81040FAF7A7BC00001800002055
:105950000FB47F2110B503AB0448029A00F046FC57
:105960000248FFF78BFE10BC5DF814FBD00E002040
:105970000268516002680A6001604860704702680E
:10598000516002680A600160486070470246002169
:1059900000E0491C00689042FBD108467047D0E9FE
:1059A00000124A60D0E90012116040600060704748
:1059B000D0E900124A60D0E9001211604060006036
:1059C0007047000010B50346994211D28C189C42D2
:1059D0000ED9811804E000BF14F8013D01F8013D23
:1059E000521EF9D210BD00BF11F8014B03F8014B54
:1059F000521EF9D210BD000010B50346CCB2042AE5
:105A00001AD3810718D1194644EA042343EA034311
:105A100006E008C1103A08C141F8083B41F8043CCF
:105A2000102AF6D201E008C1121F042AFBD20B464D
:105A300002E000BF03F8014B521EFBD210BD10B5AF
:105A4000044600202072FAF723FCF4E903124A60AE
:105A5000D4E90012116064602460BDE81040FAF7D8
:105A60001BBC0000074A002102EB01131B78834294
:105A700002D102EB01107047491C0329F4DB00201E
:105A8000704700001C0000202DE9F0410546174634
:105A90000E460846FFF7E6FF0446FFF74FFD211DBF
:105AA000606800E000688842FCD1FFF755FD46F0D1
:105AB0008000287208223946284600F0FFF8FAF7DD
:105AC000E7FB54F8041F0C354D6021682960256000
:105AD0006C60BDE8F041FAF7DFBB007A000601D543
